{
  "_format": "hh-sol-artifact-1",
  "contractName": "Example",
  "sourceName": "contracts/Example.sol",
  "abi": [
    {
      "inputs": [],
      "name": "returnVotingState",
      "outputs": [
        {
          "internalType": "bool",
          "name": "",
          "type": "bool"
        }
      ],
      "stateMutability": "view",
      "type": "function"
    },
    {
      "inputs": [
        {
          "internalType": "bool",
          "name": "_state",
          "type": "bool"
        }
      ],
      "name": "setVotingState",
      "outputs": [],
      "stateMutability": "nonpayable",
      "type": "function"
    }
  ],
  "bytecode": "0x608060405234801561001057600080fd5b50610171806100206000396000f3fe608060405234801561001057600080fd5b50600436106100365760003560e01c8063698b21351461003b578063bfd41f3b14610059575b600080fd5b610043610075565b60405161005091906100f8565b60405180910390f35b610073600480360381019061006e91906100bc565b61008b565b005b60008060009054906101000a900460ff16905090565b806000806101000a81548160ff02191690831515021790555050565b6000813590506100b681610124565b92915050565b6000602082840312156100d2576100d161011f565b5b60006100e0848285016100a7565b91505092915050565b6100f281610113565b82525050565b600060208201905061010d60008301846100e9565b92915050565b60008115159050919050565b600080fd5b61012d81610113565b811461013857600080fd5b5056fea26469706673582212205b1474628d6d3bc79fbf5f4bf1d5313e484758f087ddd078b07916dac0f0740f64736f6c63430008070033",
  "linkReferences": {},
  "deployedLinkReferences": {}
}