{
  "_format": "hh-sol-artifact-1",
  "contractName": "Inheritance",
  "sourceName": "contracts/Inheritance.sol",
  "abi": [
    {
      "inputs": [],
      "name": "increment",
      "outputs": [],
      "stateMutability": "nonpayable",
      "type": "function"
    },
    {
      "inputs": [],
      "name": "num",
      "outputs": [
        {
          "internalType": "uint256",
          "name": "",
          "type": "uint256"
        }
      ],
      "stateMutability": "view",
      "type": "function"
    }
  ],
  "bytecode": "0x608060405234801561001057600080fd5b50610164806100206000396000f3fe608060405234801561001057600080fd5b50600436106100365760003560e01c80634e70b1dc1461003b578063d09de08a14610059575b600080fd5b610043610063565b6040516100509190610091565b60405180910390f35b610061610069565b005b60005481565b60008081548092919061007b906100b6565b9190505550565b61008b816100ac565b82525050565b60006020820190506100a66000830184610082565b92915050565b6000819050919050565b60006100c1826100ac565b91507fffffffffffffffffffffffffffffffffffffffffffffffffffffffffffffffff8214156100f4576100f36100ff565b5b600182019050919050565b7f4e487b7100000000000000000000000000000000000000000000000000000000600052601160045260246000fdfea2646970667358221220621e90b02ad8ab5a4e46cbd807cabfe3a106ad97a504b5838119e7f777113c1f64736f6c63430008070033",
  "linkReferences": {},
  "deployedLinkReferences": {}
}