{
  "_format": "hh-sol-artifact-1",
  "contractName": "PatientDataManagement",
  "sourceName": "contracts/PatientDataManagement.sol",
  "abi": [
    {
      "inputs": [],
      "stateMutability": "nonpayable",
      "type": "constructor"
    },
    {
      "anonymous": false,
      "inputs": [
        {
          "indexed": true,
          "internalType": "address",
          "name": "patient",
          "type": "address"
        },
        {
          "indexed": true,
          "internalType": "address",
          "name": "accessor",
          "type": "address"
        },
        {
          "indexed": false,
          "internalType": "bool",
          "name": "isGranted",
          "type": "bool"
        }
      ],
      "name": "AccessUpdated",
      "type": "event"
    },
    {
      "anonymous": false,
      "inputs": [
        {
          "indexed": true,
          "internalType": "address",
          "name": "patient",
          "type": "address"
        },
        {
          "indexed": false,
          "internalType": "uint256",
          "name": "timestamp",
          "type": "uint256"
        },
        {
          "indexed": false,
          "internalType": "uint256",
          "name": "glucoseLevel",
          "type": "uint256"
        },
        {
          "indexed": false,
          "internalType": "bytes32",
          "name": "medicationHash",
          "type": "bytes32"
        },
        {
          "indexed": false,
          "internalType": "bytes32",
          "name": "mealsHash",
          "type": "bytes32"
        },
        {
          "indexed": false,
          "internalType": "bytes32",
          "name": "exerciseHash",
          "type": "bytes32"
        }
      ],
      "name": "DataLogged",
      "type": "event"
    },
    {
      "anonymous": false,
      "inputs": [
        {
          "indexed": true,
          "internalType": "address",
          "name": "accessor",
          "type": "address"
        },
        {
          "indexed": false,
          "internalType": "bool",
          "name": "isGranted",
          "type": "bool"
        }
      ],
      "name": "EmergencyAccessUpdated",
      "type": "event"
    },
    {
      "inputs": [
        {
          "internalType": "uint256",
          "name": "_index",
          "type": "uint256"
        }
      ],
      "name": "deleteHealthData",
      "outputs": [],
      "stateMutability": "nonpayable",
      "type": "function"
    },
    {
      "inputs": [
        {
          "internalType": "address",
          "name": "_patient",
          "type": "address"
        },
        {
          "internalType": "uint256",
          "name": "_startTime",
          "type": "uint256"
        },
        {
          "internalType": "uint256",
          "name": "_endTime",
          "type": "uint256"
        }
      ],
      "name": "getAverageGlucoseLevel",
      "outputs": [
        {
          "internalType": "uint256",
          "name": "",
          "type": "uint256"
        }
      ],
      "stateMutability": "view",
      "type": "function"
    },
    {
      "inputs": [
        {
          "internalType": "address",
          "name": "_accessor",
          "type": "address"
        }
      ],
      "name": "grantEmergencyAccess",
      "outputs": [],
      "stateMutability": "nonpayable",
      "type": "function"
    },
    {
      "inputs": [
        {
          "internalType": "uint256",
          "name": "_glucoseLevel",
          "type": "uint256"
        },
        {
          "internalType": "bytes32",
          "name": "_medicationHash",
          "type": "bytes32"
        },
        {
          "internalType": "bytes32",
          "name": "_mealsHash",
          "type": "bytes32"
        },
        {
          "internalType": "bytes32",
          "name": "_exerciseHash",
          "type": "bytes32"
        }
      ],
      "name": "logHealthData",
      "outputs": [],
      "stateMutability": "nonpayable",
      "type": "function"
    },
    {
      "inputs": [
        {
          "internalType": "address",
          "name": "_accessor",
          "type": "address"
        }
      ],
      "name": "revokeEmergencyAccess",
      "outputs": [],
      "stateMutability": "nonpayable",
      "type": "function"
    },
    {
      "inputs": [
        {
          "internalType": "address",
          "name": "_accessor",
          "type": "address"
        },
        {
          "internalType": "bool",
          "name": "_isGranted",
          "type": "bool"
        }
      ],
      "name": "updateAccess",
      "outputs": [],
      "stateMutability": "nonpayable",
      "type": "function"
    },
    {
      "inputs": [
        {
          "internalType": "address",
          "name": "_patient",
          "type": "address"
        }
      ],
      "name": "viewHealthData",
      "outputs": [
        {
          "components": [
            {
              "internalType": "uint256",
              "name": "timestamp",
              "type": "uint256"
            },
            {
              "internalType": "uint256",
              "name": "glucoseLevel",
              "type": "uint256"
            },
            {
              "internalType": "bytes32",
              "name": "medicationHash",
              "type": "bytes32"
            },
            {
              "internalType": "bytes32",
              "name": "mealsHash",
              "type": "bytes32"
            },
            {
              "internalType": "bytes32",
              "name": "exerciseHash",
              "type": "bytes32"
            }
          ],
          "internalType": "struct PatientDataManagement.HealthData[]",
          "name": "",
          "type": "tuple[]"
        }
      ],
      "stateMutability": "view",
      "type": "function"
    }
  ],
  "bytecode": "0x608060405234801561001057600080fd5b5033600360006101000a81548173ffffffffffffffffffffffffffffffffffffffff021916908373ffffffffffffffffffffffffffffffffffffffff16021790555061152b806100616000396000f3fe608060405234801561001057600080fd5b506004361061007d5760003560e01c806373b492ff1161005b57806373b492ff146100ea5780639951664e14610106578063aabc428014610136578063d0ad1398146101525761007d565b806305c17521146100825780630c66f928146100b2578063213156cc146100ce575b600080fd5b61009c60048036038101906100979190610d0b565b61016e565b6040516100a99190611037565b60405180910390f35b6100cc60048036038101906100c79190610d38565b610390565b005b6100e860048036038101906100e39190610df8565b6104fd565b005b61010460048036038101906100ff9190610d0b565b610621565b005b610120600480360381019061011b9190610d78565b61075b565b60405161012d9190611114565b60405180910390f35b610150600480360381019061014b9190610d0b565b610a6e565b005b61016c60048036038101906101679190610dcb565b610ba8565b005b60603373ffffffffffffffffffffffffffffffffffffffff168273ffffffffffffffffffffffffffffffffffffffff1614806102305750600160008373ffffffffffffffffffffffffffffffffffffffff1673ffffffffffffffffffffffffffffffffffffffff16815260200190815260200160002060003373ffffffffffffffffffffffffffffffffffffffff1673ffffffffffffffffffffffffffffffffffffffff16815260200190815260200160002060009054906101000a900460ff165b806102845750600260003373ffffffffffffffffffffffffffffffffffffffff1673ffffffffffffffffffffffffffffffffffffffff16815260200190815260200160002060009054906101000a900460ff165b6102c3576040517f08c379a00000000000000000000000000000000000000000000000000000000081526004016102ba906110d4565b60405180910390fd5b6000808373ffffffffffffffffffffffffffffffffffffffff1673ffffffffffffffffffffffffffffffffffffffff168152602001908152602001600020805480602002602001604051908101604052809291908181526020016000905b8282101561038557838290600052602060002090600502016040518060a00160405290816000820154815260200160018201548152602001600282015481526020016003820154815260200160048201548152505081526020019060010190610321565b505050509050919050565b333373ffffffffffffffffffffffffffffffffffffffff168173ffffffffffffffffffffffffffffffffffffffff16146103ff576040517f08c379a00000000000000000000000000000000000000000000000000000000081526004016103f6906110f4565b60405180910390fd5b81600160003373ffffffffffffffffffffffffffffffffffffffff1673ffffffffffffffffffffffffffffffffffffffff16815260200190815260200160002060008573ffffffffffffffffffffffffffffffffffffffff1673ffffffffffffffffffffffffffffffffffffffff16815260200190815260200160002060006101000a81548160ff0219169083151502179055508273ffffffffffffffffffffffffffffffffffffffff163373ffffffffffffffffffffffffffffffffffffffff167f5b273ba4eb5db97af8506cc6e94cd82ed91395089a5c5012479f42b23d8248ee846040516104f09190611059565b60405180910390a3505050565b60006040518060a001604052804281526020018681526020018581526020018481526020018381525090506000803373ffffffffffffffffffffffffffffffffffffffff1673ffffffffffffffffffffffffffffffffffffffff168152602001908152602001600020819080600181540180825580915050600190039060005260206000209060050201600090919091909150600082015181600001556020820151816001015560408201518160020155606082015181600301556080820151816004015550503373ffffffffffffffffffffffffffffffffffffffff167fe3b524e09af637da904f489285231e36fe28049d1739ea6147b9edbb73bfec78428787878760405161061295949392919061112f565b60405180910390a25050505050565b600360009054906101000a900473ffffffffffffffffffffffffffffffffffffffff1673ffffffffffffffffffffffffffffffffffffffff163373ffffffffffffffffffffffffffffffffffffffff16146106b1576040517f08c379a00000000000000000000000000000000000000000000000000000000081526004016106a890611074565b60405180910390fd5b6000600260008373ffffffffffffffffffffffffffffffffffffffff1673ffffffffffffffffffffffffffffffffffffffff16815260200190815260200160002060006101000a81548160ff0219169083151502179055508073ffffffffffffffffffffffffffffffffffffffff167f1f3dde93c44f27a9f416923b22c0dcd76b3ef122dbe77b19fc161a9dc0f2f10060006040516107509190611059565b60405180910390a250565b60003373ffffffffffffffffffffffffffffffffffffffff168473ffffffffffffffffffffffffffffffffffffffff16148061081d5750600160008573ffffffffffffffffffffffffffffffffffffffff1673ffffffffffffffffffffffffffffffffffffffff16815260200190815260200160002060003373ffffffffffffffffffffffffffffffffffffffff1673ffffffffffffffffffffffffffffffffffffffff16815260200190815260200160002060009054906101000a900460ff165b61085c576040517f08c379a0000000000000000000000000000000000000000000000000000000008152600401610853906110d4565b60405180910390fd5b60008060005b6000808873ffffffffffffffffffffffffffffffffffffffff1673ffffffffffffffffffffffffffffffffffffffff16815260200190815260200160002080549050811015610a1357856000808973ffffffffffffffffffffffffffffffffffffffff1673ffffffffffffffffffffffffffffffffffffffff16815260200190815260200160002082815481106108fc576108fb61134c565b5b9060005260206000209060050201600001541015801561097d5750846000808973ffffffffffffffffffffffffffffffffffffffff1673ffffffffffffffffffffffffffffffffffffffff16815260200190815260200160002082815481106109685761096761134c565b5b90600052602060002090600502016000015411155b15610a00576000808873ffffffffffffffffffffffffffffffffffffffff1673ffffffffffffffffffffffffffffffffffffffff16815260200190815260200160002081815481106109d2576109d161134c565b5b906000526020600020906005020160010154836109ef91906111cc565b925081806109fc906112a5565b9250505b8080610a0b906112a5565b915050610862565b5060008111610a57576040517f08c379a0000000000000000000000000000000000000000000000000000000008152600401610a4e90611094565b60405180910390fd5b8082610a639190611222565b925050509392505050565b600360009054906101000a900473ffffffffffffffffffffffffffffffffffffffff1673ffffffffffffffffffffffffffffffffffffffff163373ffffffffffffffffffffffffffffffffffffffff1614610afe576040517f08c379a0000000000000000000000000000000000000000000000000000000008152600401610af590611074565b60405180910390fd5b6001600260008373ffffffffffffffffffffffffffffffffffffffff1673ffffffffffffffffffffffffffffffffffffffff16815260200190815260200160002060006101000a81548160ff0219169083151502179055508073ffffffffffffffffffffffffffffffffffffffff167f1f3dde93c44f27a9f416923b22c0dcd76b3ef122dbe77b19fc161a9dc0f2f1006001604051610b9d9190611059565b60405180910390a250565b6000803373ffffffffffffffffffffffffffffffffffffffff1673ffffffffffffffffffffffffffffffffffffffff168152602001908152602001600020805490508110610c2b576040517f08c379a0000000000000000000000000000000000000000000000000000000008152600401610c22906110b4565b60405180910390fd5b6000803373ffffffffffffffffffffffffffffffffffffffff1673ffffffffffffffffffffffffffffffffffffffff1681526020019081526020016000208181548110610c7b57610c7a61134c565b5b90600052602060002090600502016000808201600090556001820160009055600282016000905560038201600090556004820160009055505050565b600081359050610cc681611499565b92915050565b600081359050610cdb816114b0565b92915050565b600081359050610cf0816114c7565b92915050565b600081359050610d05816114de565b92915050565b600060208284031215610d2157610d2061137b565b5b6000610d2f84828501610cb7565b91505092915050565b60008060408385031215610d4f57610d4e61137b565b5b6000610d5d85828601610cb7565b9250506020610d6e85828601610ccc565b9150509250929050565b600080600060608486031215610d9157610d9061137b565b5b6000610d9f86828701610cb7565b9350506020610db086828701610cf6565b9250506040610dc186828701610cf6565b9150509250925092565b600060208284031215610de157610de061137b565b5b6000610def84828501610cf6565b91505092915050565b60008060008060808587031215610e1257610e1161137b565b5b6000610e2087828801610cf6565b9450506020610e3187828801610ce1565b9350506040610e4287828801610ce1565b9250506060610e5387828801610ce1565b91505092959194509250565b6000610e6b8383610fb1565b60a08301905092915050565b6000610e8282611192565b610e8c81856111aa565b9350610e9783611182565b8060005b83811015610ec8578151610eaf8882610e5f565b9750610eba8361119d565b925050600181019050610e9b565b5085935050505092915050565b610ede81611265565b82525050565b610eed81611271565b82525050565b610efc81611271565b82525050565b6000610f0f6026836111bb565b9150610f1a82611380565b604082019050919050565b6000610f32601e836111bb565b9150610f3d826113cf565b602082019050919050565b6000610f55600d836111bb565b9150610f60826113f8565b602082019050919050565b6000610f786015836111bb565b9150610f8382611421565b602082019050919050565b6000610f9b6028836111bb565b9150610fa68261144a565b604082019050919050565b60a082016000820151610fc76000850182611019565b506020820151610fda6020850182611019565b506040820151610fed6040850182610ee4565b5060608201516110006060850182610ee4565b5060808201516110136080850182610ee4565b50505050565b6110228161129b565b82525050565b6110318161129b565b82525050565b600060208201905081810360008301526110518184610e77565b905092915050565b600060208201905061106e6000830184610ed5565b92915050565b6000602082019050818103600083015261108d81610f02565b9050919050565b600060208201905081810360008301526110ad81610f25565b9050919050565b600060208201905081810360008301526110cd81610f48565b9050919050565b600060208201905081810360008301526110ed81610f6b565b9050919050565b6000602082019050818103600083015261110d81610f8e565b9050919050565b60006020820190506111296000830184611028565b92915050565b600060a0820190506111446000830188611028565b6111516020830187611028565b61115e6040830186610ef3565b61116b6060830185610ef3565b6111786080830184610ef3565b9695505050505050565b6000819050602082019050919050565b600081519050919050565b6000602082019050919050565b600082825260208201905092915050565b600082825260208201905092915050565b60006111d78261129b565b91506111e28361129b565b9250827fffffffffffffffffffffffffffffffffffffffffffffffffffffffffffffffff03821115611217576112166112ee565b5b828201905092915050565b600061122d8261129b565b91506112388361129b565b9250826112485761124761131d565b5b828204905092915050565b600061125e8261127b565b9050919050565b60008115159050919050565b6000819050919050565b600073ffffffffffffffffffffffffffffffffffffffff82169050919050565b6000819050919050565b60006112b08261129b565b91507fffffffffffffffffffffffffffffffffffffffffffffffffffffffffffffffff8214156112e3576112e26112ee565b5b600182019050919050565b7f4e487b7100000000000000000000000000000000000000000000000000000000600052601160045260246000fd5b7f4e487b7100000000000000000000000000000000000000000000000000000000600052601260045260246000fd5b7f4e487b7100000000000000000000000000000000000000000000000000000000600052603260045260246000fd5b600080fd5b7f4f6e6c7920746865206f776e65722063616e20706572666f726d20746869732060008201527f616374696f6e0000000000000000000000000000000000000000000000000000602082015250565b7f4e6f206461746120696e20746865207370656369666965642072616e67650000600082015250565b7f496e76616c696420696e64657800000000000000000000000000000000000000600082015250565b7f416363657373206e6f7420617574686f72697a65640000000000000000000000600082015250565b7f4f6e6c79207468652070617469656e742063616e20706572666f726d2074686960008201527f7320616374696f6e000000000000000000000000000000000000000000000000602082015250565b6114a281611253565b81146114ad57600080fd5b50565b6114b981611265565b81146114c457600080fd5b50565b6114d081611271565b81146114db57600080fd5b50565b6114e78161129b565b81146114f257600080fd5b5056fea264697066735822122092ca0fb29b3e3a7ac0c444af6b6ddb527c819d89b1bbc1839c3db977f94ae5a064736f6c63430008070033",
  "linkReferences": {},
  "deployedLinkReferences": {}
}