{
  "_format": "hh-sol-artifact-1",
  "contractName": "PatientDataManagement",
  "sourceName": "contracts/PatientDataManagement.sol",
  "abi": [
    {
      "inputs": [
        {
          "internalType": "address",
          "name": "_rewardTokenAddress",
          "type": "address"
        }
      ],
      "stateMutability": "nonpayable",
      "type": "constructor"
    },
    {
      "anonymous": false,
      "inputs": [
        {
          "indexed": true,
          "internalType": "address",
          "name": "patient",
          "type": "address"
        },
        {
          "indexed": true,
          "internalType": "address",
          "name": "accessor",
          "type": "address"
        },
        {
          "indexed": false,
          "internalType": "bool",
          "name": "isGranted",
          "type": "bool"
        }
      ],
      "name": "AccessUpdated",
      "type": "event"
    },
    {
      "anonymous": false,
      "inputs": [
        {
          "indexed": true,
          "internalType": "address",
          "name": "patient",
          "type": "address"
        },
        {
          "indexed": false,
          "internalType": "uint256",
          "name": "timestamp",
          "type": "uint256"
        }
      ],
      "name": "DataLogged",
      "type": "event"
    },
    {
      "anonymous": false,
      "inputs": [
        {
          "indexed": true,
          "internalType": "address",
          "name": "patient",
          "type": "address"
        },
        {
          "indexed": false,
          "internalType": "uint256",
          "name": "amount",
          "type": "uint256"
        }
      ],
      "name": "RewardIssued",
      "type": "event"
    },
    {
      "inputs": [
        {
          "internalType": "uint256",
          "name": "_glucoseLevel",
          "type": "uint256"
        },
        {
          "internalType": "string",
          "name": "_medication",
          "type": "string"
        },
        {
          "internalType": "string",
          "name": "_meals",
          "type": "string"
        },
        {
          "internalType": "string",
          "name": "_exercise",
          "type": "string"
        }
      ],
      "name": "logHealthData",
      "outputs": [],
      "stateMutability": "nonpayable",
      "type": "function"
    },
    {
      "inputs": [
        {
          "internalType": "address",
          "name": "_accessor",
          "type": "address"
        },
        {
          "internalType": "bool",
          "name": "_isGranted",
          "type": "bool"
        }
      ],
      "name": "updateAccess",
      "outputs": [],
      "stateMutability": "nonpayable",
      "type": "function"
    },
    {
      "inputs": [
        {
          "internalType": "address",
          "name": "_patient",
          "type": "address"
        }
      ],
      "name": "viewHealthData",
      "outputs": [
        {
          "components": [
            {
              "internalType": "uint256",
              "name": "timestamp",
              "type": "uint256"
            },
            {
              "internalType": "uint256",
              "name": "glucoseLevel",
              "type": "uint256"
            },
            {
              "internalType": "string",
              "name": "medication",
              "type": "string"
            },
            {
              "internalType": "string",
              "name": "meals",
              "type": "string"
            },
            {
              "internalType": "string",
              "name": "exercise",
              "type": "string"
            }
          ],
          "internalType": "struct PatientDataManagement.HealthData[]",
          "name": "",
          "type": "tuple[]"
        }
      ],
      "stateMutability": "view",
      "type": "function"
    }
  ],
  "bytecode": "0x6080604052678ac7230489e8000060035534801561001c57600080fd5b50604051610a3b380380610a3b83398101604081905261003b91610060565b600280546001600160a01b0319166001600160a01b0392909216919091179055610090565b60006020828403121561007257600080fd5b81516001600160a01b038116811461008957600080fd5b9392505050565b61099c8061009f6000396000f3fe608060405234801561001057600080fd5b50600436106100415760003560e01c806305c17521146100465780630c66f9281461006f578063a94f576614610084575b600080fd5b610059610054366004610564565b610097565b60405161006691906105cc565b60405180910390f35b61008261007d366004610694565b610353565b005b61008261009236600461076e565b6103bf565b60606001600160a01b0382163314806100d357506001600160a01b038216600090815260016020908152604080832033845290915290205460ff165b61011b5760405162461bcd60e51b81526020600482015260156024820152741058d8d95cdcc81b9bdd08185d5d1a1bdc9a5e9959605a1b604482015260640160405180910390fd5b6001600160a01b03821660009081526020818152604080832080548251818502810185019093528083529193909284015b8282101561034857838290600052602060002090600502016040518060a0016040529081600082015481526020016001820154815260200160028201805461019390610800565b80601f01602080910402602001604051908101604052809291908181526020018280546101bf90610800565b801561020c5780601f106101e15761010080835404028352916020019161020c565b820191906000526020600020905b8154815290600101906020018083116101ef57829003601f168201915b5050505050815260200160038201805461022590610800565b80601f016020809104026020016040519081016040528092919081815260200182805461025190610800565b801561029e5780601f106102735761010080835404028352916020019161029e565b820191906000526020600020905b81548152906001019060200180831161028157829003601f168201915b505050505081526020016004820180546102b790610800565b80601f01602080910402602001604051908101604052809291908181526020018280546102e390610800565b80156103305780601f1061030557610100808354040283529160200191610330565b820191906000526020600020905b81548152906001019060200180831161031357829003601f168201915b5050505050815250508152602001906001019061014c565b505050509050919050565b3360008181526001602090815260408083206001600160a01b03871680855290835292819020805460ff191686151590811790915590519081529192917f5b273ba4eb5db97af8506cc6e94cd82ed91395089a5c5012479f42b23d8248ee910160405180910390a35050565b6040805160a08101825242815260208082018781528284018781526060840187905260808401869052336000908152808452948520805460018181018355918752939095208451600590940201928355905193820193909355915190918291600282019061042d9082610889565b50606082015160038201906104429082610889565b50608082015160048201906104579082610889565b505060025460035460405163a9059cbb60e01b815233600482015260248101919091526001600160a01b03909116915063a9059cbb906044016020604051808303816000875af11580156104af573d6000803e3d6000fd5b505050506040513d601f19601f820116820180604052508101906104d39190610949565b5060035460405190815233907ff9b6ec770c96c3a6f9225bf3a8463a8ad03e884448af07b4ecd4d19d628946ee9060200160405180910390a260405142815233907f453be834141b58125305bc44773d030b2348955891f26b281b4c38acee678a2e9060200160405180910390a25050505050565b80356001600160a01b038116811461055f57600080fd5b919050565b60006020828403121561057657600080fd5b61057f82610548565b9392505050565b6000815180845260005b818110156105ac57602081850181015186830182015201610590565b506000602082860101526020601f19601f83011685010191505092915050565b60006020808301818452808551808352604092508286019150828160051b87010184880160005b8381101561067557603f19898403018552815160a081518552888201518986015287820151818987015261062982870182610586565b915050606080830151868303828801526106438382610586565b92505050608080830151925085820381870152506106618183610586565b9689019694505050908601906001016105f3565b509098975050505050505050565b801515811461069157600080fd5b50565b600080604083850312156106a757600080fd5b6106b083610548565b915060208301356106c081610683565b809150509250929050565b634e487b7160e01b600052604160045260246000fd5b600082601f8301126106f257600080fd5b813567ffffffffffffffff8082111561070d5761070d6106cb565b604051601f8301601f19908116603f01168101908282118183101715610735576107356106cb565b8160405283815286602085880101111561074e57600080fd5b836020870160208301376000602085830101528094505050505092915050565b6000806000806080858703121561078457600080fd5b84359350602085013567ffffffffffffffff808211156107a357600080fd5b6107af888389016106e1565b945060408701359150808211156107c557600080fd5b6107d1888389016106e1565b935060608701359150808211156107e757600080fd5b506107f4878288016106e1565b91505092959194509250565b600181811c9082168061081457607f821691505b60208210810361083457634e487b7160e01b600052602260045260246000fd5b50919050565b601f82111561088457600081815260208120601f850160051c810160208610156108615750805b601f850160051c820191505b818110156108805782815560010161086d565b5050505b505050565b815167ffffffffffffffff8111156108a3576108a36106cb565b6108b7816108b18454610800565b8461083a565b602080601f8311600181146108ec57600084156108d45750858301515b600019600386901b1c1916600185901b178555610880565b600085815260208120601f198616915b8281101561091b578886015182559484019460019091019084016108fc565b50858210156109395787850151600019600388901b60f8161c191681555b5050505050600190811b01905550565b60006020828403121561095b57600080fd5b815161057f8161068356fea2646970667358221220f9d2a9ecc2b21e45dc9d4ce228e493263f653481ffa0a629b1a931b12123840264736f6c63430008140033",
  "linkReferences": {},
  "deployedLinkReferences": {}
}