{
  "_format": "hh-sol-artifact-1",
  "contractName": "Modifiers",
  "sourceName": "contracts/Modifiers.sol",
  "abi": [
    {
      "inputs": [],
      "name": "example1",
      "outputs": [],
      "stateMutability": "nonpayable",
      "type": "function"
    },
    {
      "inputs": [],
      "name": "example2",
      "outputs": [],
      "stateMutability": "nonpayable",
      "type": "function"
    },
    {
      "inputs": [],
      "name": "example3",
      "outputs": [],
      "stateMutability": "nonpayable",
      "type": "function"
    }
  ],
  "bytecode": "0x6080604052735b4cba0bdaffb8c8a24ceef4e86af88bc59422556000806101000a81548173ffffffffffffffffffffffffffffffffffffffff021916908373ffffffffffffffffffffffffffffffffffffffff16021790555034801561006457600080fd5b5061038a806100746000396000f3fe608060405234801561001057600080fd5b50600436106100415760003560e01c80631ec771e914610046578063a54998a714610050578063af5cb55b1461005a575b600080fd5b61004e610064565b005b610058610135565b005b610062610206565b005b60008054906101000a900473ffffffffffffffffffffffffffffffffffffffff1673ffffffffffffffffffffffffffffffffffffffff163373ffffffffffffffffffffffffffffffffffffffff16146100f2576040517f08c379a00000000000000000000000000000000000000000000000000000000081526004016100e9906102fa565b60405180910390fd5b33600160006101000a81548173ffffffffffffffffffffffffffffffffffffffff021916908373ffffffffffffffffffffffffffffffffffffffff160217905550565b60008054906101000a900473ffffffffffffffffffffffffffffffffffffffff1673ffffffffffffffffffffffffffffffffffffffff163373ffffffffffffffffffffffffffffffffffffffff16146101c3576040517f08c379a00000000000000000000000000000000000000000000000000000000081526004016101ba906102fa565b60405180910390fd5b33600160006101000a81548173ffffffffffffffffffffffffffffffffffffffff021916908373ffffffffffffffffffffffffffffffffffffffff160217905550565b60008054906101000a900473ffffffffffffffffffffffffffffffffffffffff1673ffffffffffffffffffffffffffffffffffffffff163373ffffffffffffffffffffffffffffffffffffffff1614610294576040517f08c379a000000000000000000000000000000000000000000000000000000000815260040161028b906102fa565b60405180910390fd5b33600160006101000a81548173ffffffffffffffffffffffffffffffffffffffff021916908373ffffffffffffffffffffffffffffffffffffffff160217905550565b60006102e460138361031a565b91506102ef8261032b565b602082019050919050565b60006020820190508181036000830152610313816102d7565b9050919050565b600082825260208201905092915050565b7f596f757265204e4f5420746865206f776e65720000000000000000000000000060008201525056fea2646970667358221220a245bd92f556743cb73dbed3d5044efcf04333aaac6b4a5228d0ebdbcf46ad5764736f6c63430008070033",
  "linkReferences": {},
  "deployedLinkReferences": {}
}