{
  "_format": "hh-sol-artifact-1",
  "contractName": "String",
  "sourceName": "contracts/String.sol",
  "abi": [
    {
      "inputs": [],
      "name": "getMessage",
      "outputs": [
        {
          "internalType": "string",
          "name": "",
          "type": "string"
        }
      ],
      "stateMutability": "view",
      "type": "function"
    },
    {
      "inputs": [],
      "name": "getMessageLength",
      "outputs": [
        {
          "internalType": "uint256",
          "name": "",
          "type": "uint256"
        }
      ],
      "stateMutability": "view",
      "type": "function"
    },
    {
      "inputs": [
        {
          "internalType": "string",
          "name": "_message",
          "type": "string"
        }
      ],
      "name": "setMessage",
      "outputs": [],
      "stateMutability": "nonpayable",
      "type": "function"
    }
  ],
  "bytecode": "0x608060405234801561001057600080fd5b50610440806100206000396000f3fe608060405234801561001057600080fd5b50600436106100415760003560e01c8063368b877214610046578063ce6d41de14610062578063f5701ede14610080575b600080fd5b610060600480360381019061005b9190610254565b61009e565b005b61006a6100b4565b60405161007791906102e9565b60405180910390f35b610088610146565b604051610095919061030b565b60405180910390f35b8181600091906100af92919061015b565b505050565b6060600080546100c39061037f565b80601f01602080910402602001604051908101604052809291908181526020018280546100ef9061037f565b801561013c5780601f106101115761010080835404028352916020019161013c565b820191906000526020600020905b81548152906001019060200180831161011f57829003601f168201915b5050505050905090565b60008080546101549061037f565b9050905090565b8280546101679061037f565b90600052602060002090601f01602090048101928261018957600085556101d0565b82601f106101a257803560ff19168380011785556101d0565b828001600101855582156101d0579182015b828111156101cf5782358255916020019190600101906101b4565b5b5090506101dd91906101e1565b5090565b5b808211156101fa5760008160009055506001016101e2565b5090565b60008083601f840112610214576102136103e5565b5b8235905067ffffffffffffffff811115610231576102306103e0565b5b60208301915083600182028301111561024d5761024c6103ea565b5b9250929050565b6000806020838503121561026b5761026a6103f4565b5b600083013567ffffffffffffffff811115610289576102886103ef565b5b610295858286016101fe565b92509250509250929050565b60006102ac82610326565b6102b68185610331565b93506102c681856020860161034c565b6102cf816103f9565b840191505092915050565b6102e381610342565b82525050565b6000602082019050818103600083015261030381846102a1565b905092915050565b600060208201905061032060008301846102da565b92915050565b600081519050919050565b600082825260208201905092915050565b6000819050919050565b60005b8381101561036a57808201518184015260208101905061034f565b83811115610379576000848401525b50505050565b6000600282049050600182168061039757607f821691505b602082108114156103ab576103aa6103b1565b5b50919050565b7f4e487b7100000000000000000000000000000000000000000000000000000000600052602260045260246000fd5b600080fd5b600080fd5b600080fd5b600080fd5b600080fd5b6000601f19601f830116905091905056fea2646970667358221220204e3edbde1dc09aeea5d24f04c15c0cb6f06f439c6532e1f53e86e8662accbc64736f6c63430008070033",
  "linkReferences": {},
  "deployedLinkReferences": {}
}