{
  "_format": "hh-sol-artifact-1",
  "contractName": "Events",
  "sourceName": "contracts/Events.sol",
  "abi": [
    {
      "anonymous": false,
      "inputs": [
        {
          "indexed": false,
          "internalType": "uint256",
          "name": "productID",
          "type": "uint256"
        },
        {
          "indexed": false,
          "internalType": "uint256",
          "name": "price",
          "type": "uint256"
        }
      ],
      "name": "productDetails",
      "type": "event"
    },
    {
      "inputs": [
        {
          "internalType": "uint256",
          "name": "_productID",
          "type": "uint256"
        },
        {
          "internalType": "uint256",
          "name": "_price",
          "type": "uint256"
        }
      ],
      "name": "addProduct",
      "outputs": [],
      "stateMutability": "nonpayable",
      "type": "function"
    }
  ],
  "bytecode": "0x608060405234801561001057600080fd5b50610172806100206000396000f3fe608060405234801561001057600080fd5b506004361061002b5760003560e01c80638b69247914610030575b600080fd5b61004a6004803603810190610045919061009e565b61004c565b005b7f972760811cb65229f6c753dcf5a6e52ca79227301f8a482385c775329c576fc5828260405161007d9291906100ed565b60405180910390a15050565b60008135905061009881610125565b92915050565b600080604083850312156100b5576100b4610120565b5b60006100c385828601610089565b92505060206100d485828601610089565b9150509250929050565b6100e781610116565b82525050565b600060408201905061010260008301856100de565b61010f60208301846100de565b9392505050565b6000819050919050565b600080fd5b61012e81610116565b811461013957600080fd5b5056fea2646970667358221220ce429bb0623f94b0cc801df9d9022b260b37d68d3a6ea25e45be5fd01e05866d64736f6c63430008070033",
  "linkReferences": {},
  "deployedLinkReferences": {}
}