{"contracts/Events.sol":{"Events":{"abi":[{"anonymous":false,"inputs":[{"indexed":false,"internalType":"uint256","name":"productID","type":"uint256"},{"indexed":false,"internalType":"uint256","name":"price","type":"uint256"}],"name":"productDetails","type":"event"},{"inputs":[{"internalType":"uint256","name":"_productID","type":"uint256"},{"internalType":"uint256","name":"_price","type":"uint256"}],"name":"addProduct","outputs":[],"stateMutability":"nonpayable","type":"function"}],"evm":{"bytecode":{"linkReferences":{},"object":"608060405234801561001057600080fd5b50610172806100206000396000f3fe608060405234801561001057600080fd5b506004361061002b5760003560e01c80638b69247914610030575b600080fd5b61004a6004803603810190610045919061009e565b61004c565b005b7f972760811cb65229f6c753dcf5a6e52ca79227301f8a482385c775329c576fc5828260405161007d9291906100ed565b60405180910390a15050565b60008135905061009881610125565b92915050565b600080604083850312156100b5576100b4610120565b5b60006100c385828601610089565b92505060206100d485828601610089565b9150509250929050565b6100e781610116565b82525050565b600060408201905061010260008301856100de565b61010f60208301846100de565b9392505050565b6000819050919050565b600080fd5b61012e81610116565b811461013957600080fd5b5056fea2646970667358221220ce429bb0623f94b0cc801df9d9022b260b37d68d3a6ea25e45be5fd01e05866d64736f6c63430008070033","opcodes":"PUSH1 0x80 PUSH1 0x40 MSTORE CALLVALUE DUP1 ISZERO PUSH2 0x10 JUMPI PUSH1 0x0 DUP1 REVERT JUMPDEST POP PUSH2 0x172 DUP1 PUSH2 0x20 PUSH1 0x0 CODECOPY PUSH1 0x0 RETURN INVALID PUSH1 0x80 PUSH1 0x40 MSTORE CALLVALUE DUP1 ISZERO PUSH2 0x10 JUMPI PUSH1 0x0 DUP1 REVERT JUMPDEST POP PUSH1 0x4 CALLDATASIZE LT PUSH2 0x2B JUMPI PUSH1 0x0 CALLDATALOAD PUSH1 0xE0 SHR DUP1 PUSH4 0x8B692479 EQ PUSH2 0x30 JUMPI JUMPDEST PUSH1 0x0 DUP1 REVERT JUMPDEST PUSH2 0x4A PUSH1 0x4 DUP1 CALLDATASIZE SUB DUP2 ADD SWAP1 PUSH2 0x45 SWAP2 SWAP1 PUSH2 0x9E JUMP JUMPDEST PUSH2 0x4C JUMP JUMPDEST STOP JUMPDEST PUSH32 0x972760811CB65229F6C753DCF5A6E52CA79227301F8A482385C775329C576FC5 DUP3 DUP3 PUSH1 0x40 MLOAD PUSH2 0x7D SWAP3 SWAP2 SWAP1 PUSH2 0xED JUMP JUMPDEST PUSH1 0x40 MLOAD DUP1 SWAP2 SUB SWAP1 LOG1 POP POP JUMP JUMPDEST PUSH1 0x0 DUP2 CALLDATALOAD SWAP1 POP PUSH2 0x98 DUP2 PUSH2 0x125 JUMP JUMPDEST SWAP3 SWAP2 POP POP JUMP JUMPDEST PUSH1 0x0 DUP1 PUSH1 0x40 DUP4 DUP6 SUB SLT ISZERO PUSH2 0xB5 JUMPI PUSH2 0xB4 PUSH2 0x120 JUMP JUMPDEST JUMPDEST PUSH1 0x0 PUSH2 0xC3 DUP6 DUP3 DUP7 ADD PUSH2 0x89 JUMP JUMPDEST SWAP3 POP POP PUSH1 0x20 PUSH2 0xD4 DUP6 DUP3 DUP7 ADD PUSH2 0x89 JUMP JUMPDEST SWAP2 POP POP SWAP3 POP SWAP3 SWAP1 POP JUMP JUMPDEST PUSH2 0xE7 DUP2 PUSH2 0x116 JUMP JUMPDEST DUP3 MSTORE POP POP JUMP JUMPDEST PUSH1 0x0 PUSH1 0x40 DUP3 ADD SWAP1 POP PUSH2 0x102 PUSH1 0x0 DUP4 ADD DUP6 PUSH2 0xDE JUMP JUMPDEST PUSH2 0x10F PUSH1 0x20 DUP4 ADD DUP5 PUSH2 0xDE JUMP JUMPDEST SWAP4 SWAP3 POP POP POP JUMP JUMPDEST PUSH1 0x0 DUP2 SWAP1 POP SWAP2 SWAP1 POP JUMP JUMPDEST PUSH1 0x0 DUP1 REVERT JUMPDEST PUSH2 0x12E DUP2 PUSH2 0x116 JUMP JUMPDEST DUP2 EQ PUSH2 0x139 JUMPI PUSH1 0x0 DUP1 REVERT JUMPDEST POP JUMP INVALID LOG2 PUSH5 0x6970667358 0x22 SLT KECCAK256 0xCE TIMESTAMP SWAP12 0xB0 PUSH3 0x3F94B0 0xCC DUP1 SAR 0xF9 0xD9 MUL 0x2B 0x26 SIGNEXTEND CALLDATACOPY 0xD6 DUP14 GASPRICE PUSH15 0xA25E45BE5FD01E05866D64736F6C63 NUMBER STOP ADDMOD SMOD STOP CALLER "},"methodIdentifiers":{"addProduct(uint256,uint256)":"8b692479"}}}}}