{"contracts/Inheritance.sol":{"Child":{"abi":[{"inputs":[],"name":"decrement","outputs":[],"stateMutability":"nonpayable","type":"function"},{"inputs":[],"name":"increment","outputs":[],"stateMutability":"nonpayable","type":"function"},{"inputs":[],"name":"incrementAndDecrement","outputs":[],"stateMutability":"nonpayable","type":"function"},{"inputs":[],"name":"num","outputs":[{"internalType":"uint256","name":"","type":"uint256"}],"stateMutability":"view","type":"function"}],"evm":{"bytecode":{"linkReferences":{},"object":"608060405234801561001057600080fd5b506101e3806100206000396000f3fe608060405234801561001057600080fd5b506004361061004c5760003560e01c80632baeceb7146100515780634e70b1dc1461005b578063d09de08a14610079578063ed2b814b14610083575b600080fd5b61005961008d565b005b6100636100a6565b60405161007091906100e6565b60405180910390f35b6100816100ac565b005b61008b6100c5565b005b60008081548092919061009f9061010b565b9190505550565b60005481565b6000808154809291906100be90610135565b9190505550565b6100cd6100ac565b6100d561008d565b565b6100e081610101565b82525050565b60006020820190506100fb60008301846100d7565b92915050565b6000819050919050565b600061011682610101565b9150600082141561012a5761012961017e565b5b600182039050919050565b600061014082610101565b91507fffffffffffffffffffffffffffffffffffffffffffffffffffffffffffffffff8214156101735761017261017e565b5b600182019050919050565b7f4e487b7100000000000000000000000000000000000000000000000000000000600052601160045260246000fdfea26469706673582212204e27ad6a9478a52c8fb1f8bfd93f5d87479fbdbf763cd08df4d9f8b548b605b564736f6c63430008070033","opcodes":"PUSH1 0x80 PUSH1 0x40 MSTORE CALLVALUE DUP1 ISZERO PUSH2 0x10 JUMPI PUSH1 0x0 DUP1 REVERT JUMPDEST POP PUSH2 0x1E3 DUP1 PUSH2 0x20 PUSH1 0x0 CODECOPY PUSH1 0x0 RETURN INVALID PUSH1 0x80 PUSH1 0x40 MSTORE CALLVALUE DUP1 ISZERO PUSH2 0x10 JUMPI PUSH1 0x0 DUP1 REVERT JUMPDEST POP PUSH1 0x4 CALLDATASIZE LT PUSH2 0x4C JUMPI PUSH1 0x0 CALLDATALOAD PUSH1 0xE0 SHR DUP1 PUSH4 0x2BAECEB7 EQ PUSH2 0x51 JUMPI DUP1 PUSH4 0x4E70B1DC EQ PUSH2 0x5B JUMPI DUP1 PUSH4 0xD09DE08A EQ PUSH2 0x79 JUMPI DUP1 PUSH4 0xED2B814B EQ PUSH2 0x83 JUMPI JUMPDEST PUSH1 0x0 DUP1 REVERT JUMPDEST PUSH2 0x59 PUSH2 0x8D JUMP JUMPDEST STOP JUMPDEST PUSH2 0x63 PUSH2 0xA6 JUMP JUMPDEST PUSH1 0x40 MLOAD PUSH2 0x70 SWAP2 SWAP1 PUSH2 0xE6 JUMP JUMPDEST PUSH1 0x40 MLOAD DUP1 SWAP2 SUB SWAP1 RETURN JUMPDEST PUSH2 0x81 PUSH2 0xAC JUMP JUMPDEST STOP JUMPDEST PUSH2 0x8B PUSH2 0xC5 JUMP JUMPDEST STOP JUMPDEST PUSH1 0x0 DUP1 DUP2 SLOAD DUP1 SWAP3 SWAP2 SWAP1 PUSH2 0x9F SWAP1 PUSH2 0x10B JUMP JUMPDEST SWAP2 SWAP1 POP SSTORE POP JUMP JUMPDEST PUSH1 0x0 SLOAD DUP2 JUMP JUMPDEST PUSH1 0x0 DUP1 DUP2 SLOAD DUP1 SWAP3 SWAP2 SWAP1 PUSH2 0xBE SWAP1 PUSH2 0x135 JUMP JUMPDEST SWAP2 SWAP1 POP SSTORE POP JUMP JUMPDEST PUSH2 0xCD PUSH2 0xAC JUMP JUMPDEST PUSH2 0xD5 PUSH2 0x8D JUMP JUMPDEST JUMP JUMPDEST PUSH2 0xE0 DUP2 PUSH2 0x101 JUMP JUMPDEST DUP3 MSTORE POP POP JUMP JUMPDEST PUSH1 0x0 PUSH1 0x20 DUP3 ADD SWAP1 POP PUSH2 0xFB PUSH1 0x0 DUP4 ADD DUP5 PUSH2 0xD7 JUMP JUMPDEST SWAP3 SWAP2 POP POP JUMP JUMPDEST PUSH1 0x0 DUP2 SWAP1 POP SWAP2 SWAP1 POP JUMP JUMPDEST PUSH1 0x0 PUSH2 0x116 DUP3 PUSH2 0x101 JUMP JUMPDEST SWAP2 POP PUSH1 0x0 DUP3 EQ ISZERO PUSH2 0x12A JUMPI PUSH2 0x129 PUSH2 0x17E JUMP JUMPDEST JUMPDEST PUSH1 0x1 DUP3 SUB SWAP1 POP SWAP2 SWAP1 POP JUMP JUMPDEST PUSH1 0x0 PUSH2 0x140 DUP3 PUSH2 0x101 JUMP JUMPDEST SWAP2 POP PUSH32 0xFFFFFFFFFFFFFFFFFFFFFFFFFFFFFFFFFFFFFFFFFFFFFFFFFFFFFFFFFFFFFFFF DUP3 EQ ISZERO PUSH2 0x173 JUMPI PUSH2 0x172 PUSH2 0x17E JUMP JUMPDEST JUMPDEST PUSH1 0x1 DUP3 ADD SWAP1 POP SWAP2 SWAP1 POP JUMP JUMPDEST PUSH32 0x4E487B7100000000000000000000000000000000000000000000000000000000 PUSH1 0x0 MSTORE PUSH1 0x11 PUSH1 0x4 MSTORE PUSH1 0x24 PUSH1 0x0 REVERT INVALID LOG2 PUSH5 0x6970667358 0x22 SLT KECCAK256 0x4E 0x27 0xAD PUSH11 0x9478A52C8FB1F8BFD93F5D DUP8 SELFBALANCE SWAP16 0xBD 0xBF PUSH23 0x3CD08DF4D9F8B548B605B564736F6C6343000807003300 "},"methodIdentifiers":{"decrement()":"2baeceb7","increment()":"d09de08a","incrementAndDecrement()":"ed2b814b","num()":"4e70b1dc"}}}}}