{
  "_format": "hh-sol-artifact-1",
  "contractName": "Uint",
  "sourceName": "contracts/Uint.sol",
  "abi": [
    {
      "inputs": [],
      "name": "answer",
      "outputs": [
        {
          "internalType": "uint256",
          "name": "",
          "type": "uint256"
        }
      ],
      "stateMutability": "view",
      "type": "function"
    }
  ],
  "bytecode": "0x6080604052600a600055600760015534801561001a57600080fd5b506101588061002a6000396000f3fe608060405234801561001057600080fd5b506004361061002b5760003560e01c806385bb7d6914610030575b600080fd5b61003861004e565b6040516100459190610074565b60405180910390f35b6000600154600054610060919061008f565b905090565b61006e816100e9565b82525050565b60006020820190506100896000830184610065565b92915050565b600061009a826100e9565b91506100a5836100e9565b9250817fffffffffffffffffffffffffffffffffffffffffffffffffffffffffffffffff04831182151516156100de576100dd6100f3565b5b828202905092915050565b6000819050919050565b7f4e487b7100000000000000000000000000000000000000000000000000000000600052601160045260246000fdfea2646970667358221220c6ce44ecb7096da9a8ae40c49ff8275361146ea3aa4e3ddb598f24b2dcc66a0564736f6c63430008070033",
  "linkReferences": {},
  "deployedLinkReferences": {}
}